{
  "contractName": "Document139",
  "abi": [
    {
      "inputs": [],
      "name": "newContract",
      "outputs": [
        {
          "internalType": "string",
          "name": "content",
          "type": "string"
        },
        {
          "internalType": "string",
          "name": "contractStatus",
          "type": "string"
        }
      ],
      "stateMutability": "view",
      "type": "function"
    },
    {
      "inputs": [],
      "name": "getContent139",
      "outputs": [
        {
          "internalType": "string",
          "name": "",
          "type": "string"
        }
      ],
      "stateMutability": "view",
      "type": "function"
    },
    {
      "inputs": [
        {
          "internalType": "string",
          "name": "newwords",
          "type": "string"
        }
      ],
      "name": "setContent139",
      "outputs": [],
      "stateMutability": "nonpayable",
      "type": "function"
    },
    {
      "inputs": [],
      "name": "getContractStatus139",
      "outputs": [
        {
          "internalType": "string",
          "name": "",
          "type": "string"
        }
      ],
      "stateMutability": "view",
      "type": "function"
    },
    {
      "inputs": [
        {
          "internalType": "string",
          "name": "newStatus",
          "type": "string"
        }
      ],
      "name": "setContractStatus139",
      "outputs": [],
      "stateMutability": "nonpayable",
      "type": "function"
    }
  ],
  "bytecode": "0x608060405234801561001057600080fd5b50610730806100206000396000f3fe608060405234801561001057600080fd5b50600436106100575760003560e01c80634313b5311461005c57806354b25a661461007b5780638ac7c81a14610097578063bbe7f4bd146100b3578063d388cab7146100d1575b600080fd5b6100646100ef565b6040516100729291906104af565b60405180910390f35b6100956004803603810190610090919061062f565b610211565b005b6100b160048036038101906100ac919061062f565b61022d565b005b6100bb61024a565b6040516100c89190610678565b60405180910390f35b6100d96102de565b6040516100e69190610678565b60405180910390f35b6000806000018054610100906106c9565b80601f016020809104026020016040519081016040528092919081815260200182805461012c906106c9565b80156101795780601f1061014e57610100808354040283529160200191610179565b820191906000526020600020905b81548152906001019060200180831161015c57829003601f168201915b50505050509080600101805461018e906106c9565b80601f01602080910402602001604051908101604052809291908181526020018280546101ba906106c9565b80156102075780601f106101dc57610100808354040283529160200191610207565b820191906000526020600020905b8154815290600101906020018083116101ea57829003601f168201915b5050505050905082565b80600080019080519060200190610229929190610373565b5050565b8060006001019080519060200190610246929190610373565b5050565b606060008001805461025b906106c9565b80601f0160208091040260200160405190810160405280929190818152602001828054610287906106c9565b80156102d45780601f106102a9576101008083540402835291602001916102d4565b820191906000526020600020905b8154815290600101906020018083116102b757829003601f168201915b5050505050905090565b6060600060010180546102f0906106c9565b80601f016020809104026020016040519081016040528092919081815260200182805461031c906106c9565b80156103695780601f1061033e57610100808354040283529160200191610369565b820191906000526020600020905b81548152906001019060200180831161034c57829003601f168201915b5050505050905090565b82805461037f906106c9565b90600052602060002090601f0160209004810192826103a157600085556103e8565b82601f106103ba57805160ff19168380011785556103e8565b828001600101855582156103e8579182015b828111156103e75782518255916020019190600101906103cc565b5b5090506103f591906103f9565b5090565b5b808211156104125760008160009055506001016103fa565b5090565b600081519050919050565b600082825260208201905092915050565b60005b83811015610450578082015181840152602081019050610435565b8381111561045f576000848401525b50505050565b6000601f19601f8301169050919050565b600061048182610416565b61048b8185610421565b935061049b818560208601610432565b6104a481610465565b840191505092915050565b600060408201905081810360008301526104c98185610476565b905081810360208301526104dd8184610476565b90509392505050565b6000604051905090565b600080fd5b600080fd5b600080fd5b600080fd5b7f4e487b7100000000000000000000000000000000000000000000000000000000600052604160045260246000fd5b61053c82610465565b810181811067ffffffffffffffff8211171561055b5761055a610504565b5b80604052505050565b600061056e6104e6565b905061057a8282610533565b919050565b600067ffffffffffffffff82111561059a57610599610504565b5b6105a382610465565b9050602081019050919050565b82818337600083830152505050565b60006105d26105cd8461057f565b610564565b9050828152602081018484840111156105ee576105ed6104ff565b5b6105f98482856105b0565b509392505050565b600082601f830112610616576106156104fa565b5b81356106268482602086016105bf565b91505092915050565b600060208284031215610645576106446104f0565b5b600082013567ffffffffffffffff811115610663576106626104f5565b5b61066f84828501610601565b91505092915050565b600060208201905081810360008301526106928184610476565b905092915050565b7f4e487b7100000000000000000000000000000000000000000000000000000000600052602260045260246000fd5b600060028204905060018216806106e157607f821691505b6020821081036106f4576106f361069a565b5b5091905056fea264697066735822122044a8a7678ff99cc7b99fb10bc85af67d09ad1a3450eda4b54d176e303c05292d64736f6c634300080d0033",
  "immutableReferences": {},
  "source": "// SPDX-License-Identifier: MIT\r\n\r\npragma solidity >=0.7.0 <0.9.0;\r\n\r\ncontract Document139 {\r\n    struct storedContract {\r\n        string content;\r\n        string contractStatus;    \r\n    }\r\n\r\n    storedContract public newContract;\r\n\r\n    function getContent139() public view returns (string memory) {\r\n        return newContract.content;\r\n    }\r\n\r\n    function setContent139(string memory newwords) public {\r\n        newContract.content = newwords;   \r\n    }\r\n\r\n    function getContractStatus139() public view returns (string memory) {\r\n        return newContract.contractStatus;\r\n    }\r\n\r\n    function setContractStatus139(string memory newStatus) public {\r\n        newContract.contractStatus = newStatus;   \r\n    }\r\n}\r\n",
  "sourcePath": "d:\\Blokchain Course\\truffle139\\contracts\\Notary139.sol",
  "compiler": {
    "name": "solc",
    "version": "0.8.13+commit.abaa5c0e.Emscripten.clang"
  },
  "schemaVersion": "3.4.7",
  "updatedAt": "2022-07-19T19:42:05.334Z",
  "devdoc": {
    "kind": "dev",
    "methods": {},
    "version": 1
  },
  "userdoc": {
    "kind": "user",
    "methods": {},
    "version": 1
  }
}